{
  "_format": "hh-sol-artifact-1",
  "contractName": "Contract",
  "sourceName": "contracts/contract.sol",
  "abi": [
    {
      "inputs": [],
      "name": "a",
      "outputs": [
        {
          "internalType": "bool",
          "name": "",
          "type": "bool"
        }
      ],
      "stateMutability": "view",
      "type": "function"
    },
    {
      "inputs": [],
      "name": "b",
      "outputs": [
        {
          "internalType": "bool",
          "name": "",
          "type": "bool"
        }
      ],
      "stateMutability": "view",
      "type": "function"
    }
  ],
  "bytecode": "0x608060405260016000806101000a81548160ff02191690831515021790555034801561002a57600080fd5b5060d2806100396000396000f3fe6080604052348015600f57600080fd5b506004361060325760003560e01c80630dbe671f1460375780634df7e3d0146057575b600080fd5b603d6077565b604051808215151515815260200191505060405180910390f35b605d6089565b604051808215151515815260200191505060405180910390f35b6000809054906101000a900460ff1681565b600060019054906101000a900460ff168156fea26469706673582212202f7ccb0883de128ae2f9519ec68208a8055721c367954d491a1da9d50a6ccf4f64736f6c63430006050033",
  "linkReferences": {},
  "deployedLinkReferences": {}
}